:020000040800F2
:10000000680C0020E5010008D3350008CD30000859
:10001000D13500083D150008373C000800000000FD
:10002000000000000000000000000000E9390008A6
:100030007715000800000000B1390008EB3900080E
:10004000FF010008FF010008FF010008FF01000890
:10005000FF010008FF010008FF010008FF01000880
:10006000FF010008FF010008FF010008FF01000870
:10007000FF010008FF010008FF010008411500080A
:10008000FF010008FF010008FF010008FF01000850
:10009000FF010008FF010008FF010008FF01000840
:1000A000FF010008FF010008FF010008693A00088D
:1000B000FF010008FF010008FF010008FF01000820
:1000C000FF010008FF010008FF010008FF01000810
:1000D000DD390008FF010008FF010008FF010008EA
:1000E000FF010008FF010008FF010008FF010008F0
:1000F000FF010008FF010008FF010008FF010008E0
:10010000FF010008FF010008FF010008FF010008CF
:10011000FF010008FF010008FF010008FF010008BF
:10012000FF010008FF010008FF010008FF010008AF
:1001300000F002F800F047F80AA090E8000C8244B2
:100140008344AAF10107DA4501D100F03CF8AFF28F
:10015000090EBAE80F0013F0010F18BFFB1A43F0A5
:1001600001031847881A0100A81A0100103A24BF99
:1001700078C878C1FAD8520724BF30C830C144BF0C
:1001800004680C607047000000230024002500264E
:10019000103A28BF78C1FBD8520728BF30C148BFEA
:1001A0000B607047662903F0FB86002070471FB57F
:1001B00000F0F0FB04000020002103F0BFFDE06030
:1001C0001FBD10B510BD00F0E5FC1146FFF7EFFFB5
:1001D00003F076FD00F003FD03B4FFF7F2FF03BC6C
:1001E00000F046FD0948804709480047FEE7FEE762
:1001F000FEE7FEE7FEE7FEE7FEE7FEE7FEE7FEE7D7
:1002000004480549054A064B70470000673A000854
:100210003101000868060020680C002068080020F2
:10022000680800200FB41CB5074B06AA7B4469463A
:100230000090059800F063FB0020694600F072FB17
:100240001CBC5DF814FB0000F50600002DE9F0472A
:100250004FF0000A89460446C0F820A02046E16815
:100260008847002876D0252806D0D4E90121904778
:10027000206A401C2062F1E7E1682046002588479B
:10028000C4F81CA006460027C4F818A02A2E09D0DE
:10029000304603F00EFD38B304EB8708303EC8F853
:1002A000186019E059F8041B204604EB870291619D
:1002B000E1688847012F064618D1E069002820DA56
:1002C00025F020051DE0D8F8180000EB800006EBB3
:1002D00040003038C8F818002046E16888470646D4
:1002E00003F0E7FC0028EED1012F0AD02E2E08D112
:1002F0002046E16888477F1C0646022F45F020050E
:10030000C4DBA069002803DA404245F00105A06182
:10031000E80701D025F01005B6B1A6F14100192873
:1003200002D8203645F400654A463146204625600D
:100330004D46FFF737FF58B1012806D0ED1D25F0D7
:10034000070000F1080989E704E005F1040985E7E1
:1003500030468AE7206ABDE8F08740EA010310B51D
:100360009B070FD1042A0DD310C808C9121F9C4245
:10037000F8D020BA19BA884201D9012010BD4FF037
:10038000FF3010BD1AB1D30703D0521C07E0002084
:1003900010BD10F8013B11F8014B1B1B07D110F8E1
:1003A000013B11F8014B1B1B01D1921EF1D11846E4
:1003B00010BD032A40F2308010F0030C00F01580CD
:1003C00011F8013BBCF1020F624498BF11F801CB58
:1003D00000F8013B38BF11F8013BA2F1040298BFBD
:1003E00000F801CB38BF00F8013B11F0030300F027
:1003F0009E82083AC0F0088051F8043B083A51F850
:1004000004CBA0E80810F5E7121D5CBF51F8043BCF
:1004100040F8043BAFF30080D20724BF11F8013B42
:1004200011F801CB48BF11F8012B24BF00F8013BA4
:1004300000F801CB48BF00F8012B70474FF00002D5
:100440000429C0F0128010F0030C00F01B80CCF1E6
:10045000040CBCF1020F18BF00F8012BA8BF20F854
:10046000022BA1EB0C0100F00DB85FEAC17C24BFA8
:1004700000F8012B00F8012B48BF00F8012B704752
:100480004FF0000200B5134694469646203922BF2D
:10049000A0E80C50A0E80C50B1F12001BFF4F7AF78
:1004A000090728BFA0E80C5048BF0CC05DF804EB5A
:1004B000890028BF40F8042B08BF704748BF20F8C8
:1004C000022B11F0804F18BF00F8012B70477047C6
:1004D0007047704770472DE9FF4F0C461E464FF09E
:1004E000FF378BB0D2E90001DDF860800A908A46C0
:1004F000C1F30A5505B93D46002108464FF00000FA
:10050000BAF1000F00F4400005DA00EB80004FF470
:10051000400101EA50004FEA9059B9F1010F00DDA6
:10052000B9460A9850EA4A000ED044F61050A5F297
:10053000FF3545432F14B8F1000F1ED07542291E18
:100540001EDDC9F100021CE0B8F1010F4FF0000000
:1005500001D0302103E0F24305E02154401CB042B9
:10056000FBDB30460022002121540B99C1F80880A2
:10057000C1E900200FB0BDE8F08FBD1B6D1CDEE7A8
:100580004A4600DA694206A800F08EFA06AB93E804
:10059000070003AB83E8070050460A9900F06FFBA1
:1005A0008DE80700A0F500501F3800900398002D3B
:1005B0000ADD42F21F014A460844002303A90390C2
:1005C000684600F0D8FD09E0A0F500504A461F3803
:1005D000002303A90390684600F0E2FD8DE80700C0
:1005E0000004000C03D04FF0FF30410800E010463B
:1005F000B8F1000F03D00022009215461EE0751ED0
:1006000005D400F0CBF9303262556D1EF9D5B346F2
:100610000122084302D000227F1C04E02078302809
:1006200001D100227F1E002A099784D01DE0112DE0
:1006300007DA00F0B3F9303262556D1C50EA01025E
:10064000F5D1084302D00098C8B10EE00021681E21
:1006500005E0235C625C63542254401E491C8142C5
:10066000F7DBAB46A81B401E0990002004F80B00E6
:100670000B98099AC0F80880C0E9002B7AE7112688
:100680004FF0000857E72DE9F04F88460446D21D89
:1006900022F0070191B0D1E90001CDE90A0103F090
:1006A000E4FA02460B98C00F01D02D2007E0206825
:1006B000810701D52B2002E0202101EAC000032A96
:1006C000099001D0072A05DB03464146204600F089
:1006D000ABF90BE12078800601D5E06900E0062047
:1006E000B8F1650F814606D0B8F1660F18D0B8F1A1
:1006F000670F70D131E00020B9F1110F009001DBDC
:10070000112301E009F101030AAA01A90CA8FFF7CE
:10071000E2FEDDE90C70002609F10105834647E0A1
:1007200001204B4600904FF000470AAA01A90CA8EF
:10073000FFF7D1FEDDE90DB00C995D46002610B93A
:1007400009F101000D18B9EB050003D4C0F1FF3623
:1007500009F10105A5EB09002BE0B9F1010F01DA60
:100760004FF001090020B9F1110F0090484601DD5A
:10077000112300E003460AAA01A90CA8FFF7ABFE6B
:10078000DDE90C704D4600268346207800070AD428
:10079000AB4500DA5D4601A8012D04DD411911F8D1
:1007A000011C302907D04F4502DA17F1040F04DA93
:1007B000012082460FE06D1EEEE7002F02DCED1BEC
:1007C0003E4403E0781CA84200DD7D1CB81B00F10C
:1007D000010A4FF000472078000703D4AA4501DB47
:1007E0004FF0FF3A0021B7F1004F0DF143088DF8AB
:1007F000431024D002202B23002F01DA7F422D2327
:100800000A21021EA0F1010000DC5FB197FBF1FCA0
:1008100097FBF1F201FB1C7C17460CF1300C08F839
:1008200001CDEEE7A8F1010003702188090501D58B
:10083000452100E06521A0F1010800F8011C09989C
:100840000FA9A1EB0807FF1D00B10120411901EB21
:10085000EA70A1693844081A401EA0612078C006D9
:1008600002D42046AFF30080099828B1D4E90121D1
:100870009047206A401C20622078C00622D520467E
:10088000AFF300801EE0002E04DBB34502DD01A8BB
:10089000805D00E03020D4E901219047206A401CAF
:1008A0002062761CAAF101005FEA000A0AD100F07A
:1008B00071F8C0680168405CD4E901219047206A62
:1008C000401C2062281EA5F10105DCDC07E0D4E90C
:1008D000012118F8010B9047206A401C2062381E45
:1008E000A7F10107F3DC2046AFF30080032011B02D
:1008F00041E6000001694A1C02610878704700B5B2
:100900008FB0CDE901310021059105497944CDE948
:10091000031011466846FFF799FC0FB000BD0000B8
:10092000E5FFFFFF0A6802F8010B0A60704710B587
:10093000203AC0F00B80B1E81850203AA0E81850D7
:10094000B1E81850A0E81850BFF4F5AF5FEA027C98
:1009500024BFB1E81850A0E8185044BF18C918C007
:10096000BDE810405FEA827C24BF51F8043B40F8A8
:10097000043B08BF7047D20728BF31F8023B48BF8D
:1009800011F8012B28BF20F8023B48BF00F8012BCB
:1009900070470000004870472406002030B5B0F1D1
:1009A0000A024FEA900E71F100034EEA817EB0EB2D
:1009B0000E0061EB91014FEA101E4EEA017E10EB32
:1009C0000E0041EB11114FEA102E4EEA016E10EBB2
:1009D0000E0041EB11214FEA104E4EEA014E10EB92
:1009E0000E0041EB1141401841F100014FEAD000E7
:1009F00040EA41704FEAD10110EB80054FEA8104D3
:100A000044EA907444EB01046D1944EB0404521B56
:100A1000A3414FF0000348BF0A3200D530BD401C4F
:100A200041F1000130BD00002DE9F0411F460446B0
:100A300003260168072A01F4006004DB08B116A54B
:100A400005E016A503E008B115A500E015A521F005
:100A500010002060A069C01EA0610FB1401EA061FF
:100A60002046AFF300804FB1D4E9012138469047CA
:100A7000206A401C2062C01C206206E0206AFAE75F
:100A8000D4E9012115F8010B9047761EF8D22046D3
:100A9000AFF30080BDE8F0814E414E006E616E0004
:100AA000494E4600696E66002DE9F04781461646BC
:100AB0008AB0354878440DC88DE80D003248784436
:100AC000801C03AC0DC884E80D0041F69B3008443F
:100AD000372190FBF1F290FBF1F5A5F1800501FBC8
:100AE00012041B3C02D56442012000E00020DFF824
:100AF00098A080460027FA44AAF1BE0A0EE0E0075B
:100B00000AD03246684607EB470101230AEB810110
:100B100000F046FB8DE8070064107F1C002CEED12E
:100B2000194F7F44AE3F19E0E80715D007EB0410DA
:100B30000DF1180A90E80E008AE80E00C068F04235
:100B400001D1981908903246012306A903A800F0A4
:100B500027FB03AB83E807006D10641C002DE3D175
:100B60004FF0010332466946B8F1000F03A802D0E6
:100B700000F001FB01E000F013FBC9E90001C9F836
:100B800008200AB0BDE8F0871C110100004870473A
:100B9000040600207546FFF7F9FFAE4605006946DA
:100BA000534620F00700854618B020B5FFF728FB14
:100BB000BDE820404FF000064FF000074FF000085E
:100BC0004FF0000B21F00701AC46ACE8C009ACE8DF
:100BD000C009ACE8C009ACE8C0098D46704710B543
:100BE0000446AFF300802046BDE81040FFF7F4BA9A
:100BF0004FF0013C50F8042B51F8043B9A4221D1AC
:100C0000A2EB0C03934313EACC1317D150F8042B37
:100C100051F8043B9A4215D1A2EB0C03934313EA1B
:100C2000CC130BD150F8042B51F8043B9A4209D154
:100C3000A2EB0C03934313EACC13DBD04FF000007C
:100C4000704700BFD01A01BAB1FA81F101F0180162
:100C500022FA01F0CB40C1F12001DBB2C0B2C01AD0
:100C60002CFA01F3D11A914311EAC311E6D170476E
:100C700001491820ABBEFEE72600020070475FEA7C
:100C8000400C08BF91F0000F4FEA8C234FEAC122BD
:100C900043EA51514FEA1C5018BF00F5F0404FEAAB
:100CA000300018BF41F000415FEA6C5C00F0298021
:100CB000BCF1FF3F08BF40F080407047130C06BFF7
:100CC00012044FF0100C4FF0000C130E04BF120270
:100CD0000CF1080C130F04BF12010CF1040C930F5C
:100CE00004BF92000CF1020CD30F04BF52000CF1B0
:100CF000010C11464FF00002A0F11F00A0EB0C0008
:100D0000704711F0004F08BF704731F000413FF4C9
:100D1000D5AF0B0C06BF09044FF0100C4FF0000CC0
:100D20000B0E04BF09020CF1080C0B0F04BF0901E4
:100D30000CF1040C8B0F04BF89000CF1020CCB0FDB
:100D400004BF49000CF1010CCCF12003A0EB0C0016
:100D500022FA03F302FA0CF241EA030100F1010066
:100D6000704720F07F4C80EA030023F07F47ACEB14
:100D7000070303F57C5300F0004003F1FF032DE966
:100D800080494FEA154B09B44FEA144325EA0B4E4C
:100D900024EA03480FF2042606EB132749083E789D
:100DA0005FEA320203FB0667C7F5000707FB06F69A
:100DB0004FEA54374FEAD64606F1020607FB066CA7
:100DC000CCF1005C4FEA1C472CEA074C07FB06F409
:100DD0000CFB06F504EB15464FEA961634BF0020CF
:100DE0004FF000404FEAD13706FB07FC4FEA1C4C9E
:100DF0000CFB0BF7D21B03FB0CF761EB07010CFBA1
:100E00000EF7B0EB074072EB17420CFB08F734BF4C
:100E1000A2EB0742B2EB074261EB17414FEA0C44E9
:100E20004FEA910706FB07FC4FEA1C4C0CFB0BF743
:100E3000B0EBC74072EB573203FB0CF734BFA2EBA9
:100E4000C742B2EBC74261EB57310CFB0EF7B0EB78
:100E5000C70072EB57720CFB08F734BFA2EBC70256
:100E6000B2EBC70261EB5771039F4FEA816141EA20
:100E7000921104EBCC044FEAD1374FEA826206FBB1
:100E800007FC42EA90124FEA80604FEA1C4C0CFBD0
:100E90000BF7D21B03FB0CF761EB07010CFB0EF702
:100EA000B0EB074072EB17420CFB08F734BFA2EB24
:100EB0000742B2EB074261EB17414FEA8C554FEA0C
:100EC000910704EB9C2406FB07FC4FEA1C4C0CFB2F
:100ED0000BF7B0EBC74072EB573203FB0CF734BF94
:100EE000A2EBC742B2EBC74261EB57310CFB0EF7E6
:100EF000B0EBC70072EB57720CFB08F734BFA2EBE4
:100F0000C702B2EBC70261EB577115EB4C254FEAF4
:100F1000816141EA92114FEA82624FEAD13742EA97
:100F2000901206FB07FC44F100044FEA80604FEA90
:100F30001C4C0CFB0BF7D21B03FB0CF761EB0701FE
:100F40000CFB0EF7B0EB074072EB17420CFB08F7F7
:100F500034BFA2EB0742B2EB074261EB174115EB3E
:100F60001C154FEA813141EA92414FEA823242EA4E
:100F700090424FEA80304FEA0C7644F1000448EA90
:100F800003434EEA0B484FF0000EB2EB080C71EB36
:100F9000030724BF624639464EEB0E0E4FF0000B9E
:100FA0000018524149414BEB0B0BB2EB080C71EBB3
:100FB00003077BF1000B24BF624639464EEB0E0E51
:100FC0004FF0000B0018524149414BEB0B0BB2EBB9
:100FD000080C71EB03077BF1000B24BF6246394616
:100FE0004EEB0E0E51EA020718BF46F0010616EB53
:100FF0000E7655F1000254F1000103D5BDE88901D8
:10100000BDE80088BDE88901BDE80048B619524135
:1010100041EB0101A3F10103704780807F7E7D7C5D
:101020007B7A7978777676757473727171706F6E7A
:101030006E6D6C6C6B6A6A69686867666665646425
:10104000636362616160605F5F5E5E5D5D5C5C5BAF
:101050005B5A5A595958585757565655555554541E
:10106000535352525251515050504F4F4F4E4E4D7C
:101070004D4D4C4C4C4B4B4B4A4A4A4949494848C8
:101080004847474747464646454545444444444308
:1010900043434342424242414141002B9C4630D4AB
:1010A00077002BD01CB54FEA370703B44FF0100080
:1010B0004FF01001BAF1000F06D0BCF1000FDCBFF9
:1010C00040F0080040F008014FF000000FBCBDE800
:1010D00010400BF1010BBBF1010F08BF5FEA1707CE
:1010E00022BF12F1010211F101014FF0004143F161
:1010F000000300F0004043EA00007047F9D35708AE
:10110000D0E746EA064613F1400F4FEA16461FDDC8
:1011100013F1200FDFBF16430A46002120335B4244
:10112000BED0C3F1200746EA064602FA07F74FEAA7
:10113000164646EA0706C3F1200722FA03F201FA2F
:1011400007F721FA03F14FF0000342EA0702A7E78D
:1011500046EA020646EA06464FEA164646EA01060F
:10116000BCBF46EA0646360C4FF000034FF00002C3
:101170004FF0000194E72DE9804C9A46934670B4F5
:1011800091E8380007C831EA400C48BF34EA430C04
:1011900003D5FFF7E6FDFFF780FFF0BCBDE8008C4C
:1011A0002DE9804C9A46934670B491E8380007C800
:1011B00010F0804F08BF13F0804F03D100F005F806
:1011C000FFF76BFFF0BCBDE8008C20F07F4780EAA2
:1011D000030023F07F4C07EB0C03A3F57C5300F0D6
:1011E0000040A3F1FE0392F0000F00F0B38095F0F1
:1011F000000F00F077802DE901494FEA11404FEAD6
:10120000144621EA004800FB06FC24EA064708FBD6
:1012100006F607FB08F800FB07F718EB06484CEB4F
:10122000164C4FEA124B18EB07484FEA15464CEBA9
:10123000174022EA0B4E0BFB06FC25EA06470EFB85
:1012400006F607FB0EFE0BFB07F71EEB064E4CEBFC
:10125000164C4FF000061EEB074E4CEB174B18EBED
:101260000B0840F1000018EB0E0B58EB000840F1A2
:1012700000008F1A4FF000013CBFC943661B14BF2A
:10128000B5EB040C00213CBFC943F61B4FEA1744E1
:101290004EEA8E0E27EA04454FEA1C4704FB07621C
:1012A0002CEA074C05FB07F70CFB05F604FB0CFCCE
:1012B00016EB074642EB174216EB0C4642EB1C427C
:1012C0001BEB060658EB0202414146EA9E0601D599
:1012D000BDE80189B619524141EB0101A3F10103B7
:1012E000BDE801894FEA14454FEA114724EA054653
:1012F00021EA074C05FB07F406FB07F70CFB06F198
:1013000005FB0CFC11EB074144EB17444FEA124775
:1013100011EB0C4144EB1C4422EA074C05FB07F29D
:1013200006FB07F70CFB06F605FB0CFC16EB074665
:1013300042EB174216EB0C4642EB1C456A1854F17F
:10134000000148BF7047B619524141EB0101A3F1BA
:101350000103704795F0000F37D04FEA11424FEA72
:10136000144721EA024624EA074C02FB07F106FB78
:1013700007F70CFB06F402FB0CFC14EB074441EBF3
:1013800017414FEA154714EB0C4441EB1C4125EA89
:10139000074C02FB07F506FB07F70CFB06F602FB02
:1013A0000CFC16EB074645EB174516EB0C4645EBD8
:1013B0001C42121951F1000148BF7047B619524141
:1013C00041EB0101A3F1010370474FEA14454FEAD5
:1013D000114724EA054621EA074C05FB07F106FB05
:1013E00007F70CFB06F24FF0000605FB0CFC12EBB6
:1013F000074241EB174112EB0C4251EB1C4148BF35
:101400007047921841EB0101A3F1010370470000FE
:10141000054A1378002BFCD0002313708AB20146D2
:10142000024800F015BE000000000020B8000020B7
:1014300070B52C4C2C492D4DE06888420CDD012202
:101440000421284600F042FB29A12D48FEF7EAFEC0
:1014500000F042FB206170BD2A4988421ADD00F08D
:101460003BFB2169401AB0F5967F06D3607868B1DE
:101470000020607000F030FB2061607840B10022F5
:101480000421284600F022FB1FA11BE00120F0E709
:101490000122F5E7204988421DDD00F01DFB21698E
:1014A000401AC82806D3607888B10020607000F028
:1014B00013FB2061607860B100220421284600F00F
:1014C00005FB16A1BDE870400D48FEF7ABBE01203C
:1014D000ECE70122F1E700220421284600F0F6FAA9
:1014E00012A1EFE7000000200000A041001401401D
:1014F000E68F90E7A4BA3AE6ADA3E5B8B8000000DD
:101500003C00002000007041E68F90E7A4BA3AE664
:10151000B3A8E6848F00000000002041E68F90E72A
:10152000A4BA3AE58DB1E999A9000000E68F90E7E9
:10153000A4BA3AE5819CE6ADA2000000FEE70000F7
:10154000014800F01BB80000F400002030B590F80E
:1015500040500124AC40C56B6C6004686360436814
:10156000102B036803D099600068C26030BD9A6098
:101570000068C16030BD704772B6FEE72DE9F05FCC
:10158000C16B0A6801680B68046C4FF0040808FA24
:1015900004F8844D844E854FDFF814C2DFF81492AE
:1015A000DFF814A2DFF814B2DFF814E218EA020F31
:1015B00065D05FEA437862D50A68920603D40A6868
:1015C00022F004020A60DFF8F0814FF480620168C3
:1015D00008F1140813011402414524D9A9420DD081
:1015E000B1420FD0B9421AD0614515D0494515D046
:1015F000514501D1120312E0594501D104220EE0F8
:10160000714501D140220AE06D4D1435A94206D042
:101610006B4A2832914201D11A4600E022466749BE
:10162000091F0A6029E0A94213D0B14215D0B9427E
:1016300020D061451BD049451BD0514502D14FF404
:10164000800217E0414502D14FF0806212E0594517
:1016500001D104220EE0714501D140220AE0584D2B
:101660001435A94206D0564A2832914201D11A4671
:1016700000E022464B4908394A60C16A71E04FF0E8
:10168000020808FA04F818EA020F70D05FEA8378BB
:101690006DD50A68920606D40A6822F00A020A602A
:1016A000012180F82110DFF810814FF400720168E9
:1016B00008F1140813011402414524D9A9420DD0A0
:1016C000B1420FD0B9421AD0614515D0494515D065
:1016D000514501D1120312E0594501D102220EE019
:1016E000714501D120220AE0354D1435A94206D0BA
:1016F000334A2832914201D11A4600E022462F494E
:10170000091F0A6029E0A94213D0B14215D0B9429D
:1017100020D061451BD049451BD0514502D14FF423
:10172000001217E0414502D14FF0007212E0594516
:1017300001D102220EE0714501D120220AE0204DA4
:101740001435A94206D01E4A2832914201D11A46C8
:1017500000E02246134908394A60002180F8201031
:10176000816A00291CD0BDE8F05F0847FFE7082523
:10177000A540154214D01A0712D50A6822F00E02AD
:101780000A6090F84020C36B012101FA02F25A600E
:10179000816380F82110002180F82010016BE0E7C0
:1017A000BDE8F09F080002401C00024030000240EB
:1017B00044000240580002406C000240080402400D
:1017C0001C04024030B560B11A4B026814219A42E1
:1017D00009D2194B1344B3FBF1F189000164174995
:1017E0000AE0012030BD134B5B421344B3FBF1F11F
:1017F000890001640F490839C163022180F8211072
:10180000136843F6F0718B43F0E901142143D0E9EA
:1018100002452C43214304692143446921438469DF
:10182000214319431160002141630122427701776E
:10183000084630BD08040240F8FFFDBF000002402A
:1018400070B5044690F82000002501280CD0012036
:1018500084F8200094F821600020012E06D084F83E
:1018600020000225284670BD022070BD022684F8A3
:101870002160A0632068066826F001060660204605
:10188000FFF764FEE06A00282068016802D041F09A
:101890000E0106E021F0040101602068016841F0BA
:1018A0000A0101602068016841F001010160D9E787
:1018B00070B5044600F010F90546601C02D00448DB
:1018C0000078044400F008F9401BA042FAD370BD30
:1018D000180000202DE9F84FDFF8C8910024A9F185
:1018E000040B23460F2709F1040AABF1040ED1E0E3
:1018F0000125A54006EA0502AA4276D1DFF8A8C173
:101900004E68A6EB0C0866452BD00DDC032E34D0B8
:1019100005DC36B3012E19D0022E2FD11BE0112E7B
:1019200016D0122E2AD119E0B8F5881F19D006DC7E
:10193000B8F5803F15D0B8F5801F1FD111E0B8F57C
:10194000001F0ED0B8F5041F18D10AE0CB6815E0CF
:10195000CB681B1D12E0CB6808330FE0CB680C335B
:101960000CE08B682BB1012B4FF0080303D04561CD
:1019700004E0042302E0056100E00023FF2A01D80F
:10198000064601E000F104064FEA840501D9A5F1FD
:101990002005D6F8008007FA05FC28EA0C0803FAAF
:1019A00005F548EA0508C6F800804D68ED0070D5D9
:1019B0003E4DAE6946F00106AE61AD6924F0030606
:1019C00005F0010500953A4D06EB050CDCF80850D2
:1019D000A607360F07FA06F825EA0805DFF8D480CF
:1019E000404503D14FF0000825E052E0DFF8C88001
:1019F000404502D14FF001081DE0DFF8C0804045AE
:101A000002D14FF0020816E0DFF8B480404502D161
:101A10004FF003080FE0DFF8AC80404502D14FF0F3
:101A2000040808E0DFF8A080404502D14FF0050827
:101A300001E04FF0060808FA06F848EA0508CCF875
:101A400008804D68D9F80060ED024D4601D5164377
:101A500000E096432E604D68DAF80060AD0255460E
:101A600001D5164300E096432E604D68DBF8006018
:101A7000AD035D4601D5164300E096432E604D68E8
:101A8000DEF80060ED03754601D5164300E096438D
:101A90002E60641C0A681646E2407FF429AFBDE858
:101AA000F88F0000080401400000111000100240EF
:101AB0000000014000080140000C014000100140FE
:101AC0000014014000180140001C01400AB10161EE
:101AD00070470904FBE70000014880687047000078
:101AE0001800002070B5040025D094F83D000025B2
:101AF00020B984F83C50204600F04EF9242084F8A8
:101B00003D002068016821F0010101602068016842
:101B100041F4004101602068016821F40041016046
:101B200000F004FD4D4A6168914201D84C4900E043
:101B30004C49884201D2012070BD4B492368B0FB5B
:101B4000F1F15E6826F03F060E435E6063689342E3
:101B500006D94FF4967359434FF47A73B1FBF3F1FE
:101B60002368491C1E6A26F03F06314319626168EA
:101B7000914210D84900401EB0FBF1F2521CC2F352
:101B80000B02042A01D2042022E0B0FBF1F0401C39
:101B9000C0F30B001CE0A268F2B301EBC10303EB3E
:101BA0000116431EB3FBF6F35B1C43F480431B0595
:101BB00049D092B301EBC10202EB0111401EB0FB10
:101BC000F1F0401CC0F30B0040F4804040F40040B2
:101BD0002168CA694CF6FF739A431043C861D4E97F
:101BE000071001432068026822F0C002114301601F
:101BF000D4E9030101432068826848F2FF339A4325
:101C000011438160D4E9050108432168CA6822F0C4
:101C1000FF021043C86001E00EE016E02068016892
:101C200041F0010101602564202084F83D00256316
:101C300084F83E50002070BD01EB4106431EB3FB0B
:101C4000F6F35B1CB3E70120C2E701EB4101401E44
:101C5000B0FBF1F0401CC0F30B00B7E7A086010019
:101C600080841E0000093D0040420F002DE9F84F1E
:101C70001F4690468A460446DDF82890FFF72CFF61
:101C8000054694F83D0020287FD1192301224049C0
:101C90002046009501F0ACFA002876D194F83C007B
:101CA000012872D0012084F83C0020680168C9072F
:101CB00003D1016841F0010101602068016821F44D
:101CC00000610160212084F83D00102084F83E006E
:101CD00000262664C4F824806785608D20852D4801
:101CE000E0622B464A465146204601F007FA90B979
:101CF000206841698069009036E02A4649462046BE
:101D000001F01CFB50B1206C042804D1206801684C
:101D100041F4007101600120BDE8F88F606A21681C
:101D200000780861606A401C6062618D491E6185AF
:101D3000218D491E89B2218522685369DB435B07E7
:101D40000BD451B100781061606A401C6062608DF4
:101D5000401E6085208D401E20852A46494620462B
:101D600001F01AFA0028CED1208D0028C5D154F8F0
:101D70003D0B016841F400710160202004F81E0948
:101D8000E67766770020C7E7FFE70220C4E7000098
:101D9000020010000000FFFF10B586B00021009186
:101DA00001910291039100680F4988421AD10F4CAA
:101DB000A06940F00800A061A069694600F0080031
:101DC0000490C02000901220019003200390084846
:101DD000FFF780FDE06940F40010E061E06900F485
:101DE0000010049006B010BD0054004000100240E6
:101DF000000C0140704770B501684B688A684FF06D
:101E00000104D24355061AD5D50718D1DD436D0616
:101E100015D4C968426A1180416A891C4162418DAA
:101E2000491E4185418D002908D101684A6822F088
:101E300060024A6080F8354000F008F970BD9507EF
:101E400018D4DD432D0615D4C2691288CA60C16951
:101E5000891CC161418C491E4184418C0029EDD10E
:101E600001684A6822F0A0024A6080F8354000F01C
:101E70004FF970BDDB439B06FBD4530607D44B6878
:101E800023F060034B60816B41F002018163110715
:101E900008D401684A6822F0A0024A60816B41F0D0
:101EA0000401816380F83540FFF7A4FF70BD000096
:101EB0002DE9F041040004D094F83500002618B153
:101EC00007E00120BDE8F08184F83460204600F08E
:101ED0006BF8022084F835002168CA6940F6BF77A4
:101EE000BA43CA6121680862606902283CD0E06890
:101EF00050B12025A068202800D86D00284920680E
:101F0000884203D1042005E01025F3E725498842E3
:101F100003D1082000F0A2F901E000F027FB2169BD
:101F2000B1F5007F02D0B0FBF5F006E0E16809B141
:101F3000A90000E0E900B0FBF1F000EB800061696E
:101F40004000B0FBF1F0401D0A21B0FBF1F000F0C1
:101F50000101401A40080902821EFE2A06D3A06B26
:101F600040F01000A063ACE7022000212269084382
:101F7000024320680262D4E901010843A269E168D2
:101F8000114308432168CA69BA43104340F4006012
:101F9000C861A663012084F83500002092E70000A4
:101FA00000380040003C004070B586B00026054671
:101FB000009601960296039600681F49884239D11F
:101FC0001E49C86940F48040C861C86900F4804077
:101FD0000490886940F0080088618869694600F0CB
:101FE000080004904FF430400090022001900390CC
:101FF0001348FFF76FFC144C124820601020C4E90E
:1020000001068020E06040002061800060612020A7
:10201000C4E906062046FFF7D5FB08B1FFF7ACFA86
:10202000EC62002211462420656200F0E5F82420CD
:1020300000F0D4F806B070BD003800400010024037
:10204000000C014058000240F400002070470000DE
:1020500070B5044629B122B194F83500012833D176
:1020600001E0012070BD94F8340001282CD0012635
:1020700084F83460032084F835000025A563E1610D
:102080002068C06900F0070003281FD005281DD074
:1020900022846284E16A1B48C862E16A1A48886245
:1020A000E16A1A480863238C2268E1690C32E06A0D
:1020B000FFF7C6FB88B154F8380F40F0080044F829
:1020C000040966702570CCE7022070BD4FF6FF70E2
:1020D00000EA420020846084DCE784F83450206801
:1020E0004168890703D4416841F0020141602068DA
:1020F000C169490503D4C16941F48061C16100200F
:1021000070BD0000DF330008BB33000893330008C4
:1021100000680349884202D10249012008707047D3
:10212000003800400000002070470000024881682D
:10213000027811448160704718000020074810B5EC
:10214000016841F010010160032000F075F80F20D4
:1021500000F006F800F024F8002010BD0020024036
:1021600070B50D4D04464FF47A712878B1FBF0F04C
:102170000A490968B1FBF0F000F0AEFB48B9102C39
:1021800007D200222146501E00F036F800206C6075
:1021900070BD012070BD0000180000202400002048
:1021A0000C4808B5816941F001018161816901F044
:1021B00001010091C16941F08051C161C06900F025
:1021C000805000900448416821F0E06141F00071C6
:1021D000416008BD0010024000000140002809DBFA
:1021E00000F01F02012191404009800000F1E02031
:1021F000C0F8001170470000F0B40E4B1B680C468D
:10220000C3F30223C3F10705042D00D90425191DCA
:10221000072901D2002300E0DB1E012606FA05F1A2
:10222000491E214099409E40761E16403143F0BC25
:1022300001F02FBD0CED00E0064900F00702086830
:102240004FF6FF03184040EA0220034A104308609B
:10225000704700000CED00E00000FA0510B50146E3
:102260000020284C04292FD00BDC012930D0022972
:1022700029D100F06BF96168C1F38131491C490033
:102280001FE0082920D010291DD161682268D201E1
:1022900019D51D48C1F38342C903805C0AD5616822
:1022A000194AC1F34041921E515C184AB2FBF1F148
:1022B000484301E0164948436168490203D440009D
:1022C0000321B0FBF1F010BDBDE8104000F04EB9A5
:1022D000226AC2F30121012903D1920701D5C80363
:1022E00010BD022905D1626A920702D549F6404025
:1022F00010BD0329FCD121688903F9D54FF2244090
:1023000010BD000000100240301B010800127A00CE
:1023100000093D002DE9F84305460078354CC0071B
:1023200054D0E0690026C00008D4E06940F0805035
:10233000E061E069012600F0805000902E480168BD
:10234000C90512D40168804641F480710160FFF72D
:10235000C3FB074605E000BFFFF7BEFBC01B6428B8
:1023600023D8D8F80000C005F6D5206A10F44070D4
:1023700021D0A98801F4407181421CD0206A1F49F4
:10238000012220F440700A6000220A602062C00727
:1023900011D0FFF7A1FB074641F2883808E000BFE3
:1023A000FFF79AFBC11B414502D90320BDE8F88322
:1023B000206A8007F4D5206A696820F440700843D9
:1023C00020621EB1E06920F08050E061287880072B
:1023D00005D56068A96820F440400843606028780B
:1023E000C00605D56068696920F480000843606014
:1023F0000020DBE700100240007000404004424231
:102400002DE9F0470F46050061D0434E306800F0DB
:102410000700B84209D2306820F007003843306026
:10242000306800F00700B84251D128683B4C810762
:1024300012D5400703D5606840F4E06060602878FA
:10244000000703D5606840F4605060606068A96868
:1024500020F0F000084360602878C00728D0686842
:10246000012810D02168022810D0890700292EDA0F
:10247000616821F0030101436160FFF72DFB804695
:1024800041F288390DE021688903EFE78901EDE722
:10249000FFF722FBA0EB0801494502D90320BDE864
:1024A000F0876068696800F00C00B0EB810FEFD135
:1024B000306800F00700B8420BD9306820F0070000
:1024C00038433060306800F00700B84201D0012086
:1024D000E5E72878400705D56068E96820F4E06002
:1024E000084360602878000706D56068296920F4F1
:1024F000605040EAC100606000F038F86168084A46
:10250000C1F30311515CC8400649086006480068E1
:10251000FFF726FE0020C2E7002002400010024024
:10252000401B0108240000201C000020044805492D
:1025300000684968044AC1F30221515CC8407047F1
:102540002400002000100240501B010804480549E7
:1025500000684968044AC1F3C221515CC840704711
:102560002400002000100240501B01080E4A516850
:102570000E4801F00C03042B11D0082B0FD10C488E
:10258000C1F38343C903C05C0AD55168084AC1F34B
:102590004041921E515C054A5043B0FBF1F0704738
:1025A00004494843704700000010024000127A00BE
:1025B0001E1B010800093D002DE9F84F040070D0F2
:1025C0002078C04DC00749D06868C0F38100012859
:1025D00007D06868C0F38100022809D16868C00389
:1025E00006D52868800339D560680028E7D035E033
:1025F0006068B0F5803F0BD010B1B0F5A02F11D0BE
:10260000286820F480302860286820F4802002E0C8
:10261000286840F480302860606890B1FFF75CFA69
:1026200006460AE0286840F480202860F0E700BFF2
:10263000FFF752FA801B642873D828688003F7D507
:102640000CE0FFF749FA064605E000BFFFF744FA41
:10265000801B6428F0D828688003F7D420789A4E2D
:1026600080074FF001094FF0000839D5686810F075
:102670000C0F07D06868C0F38100022809D1686890
:10268000C00306D42868800714D52069012808D122
:1026900010E02069B0B1C6F80090FFF71DFA0746B8
:1026A00005E00AE1FFF718FAC01B0228C4D8286821
:1026B0008007F7D52868616920F0F80040EAC1007A
:1026C00028600DE0C6F80080FFF706FA074604E030
:1026D000FFF702FAC01B022823D828688007F7D426
:1026E000207800072CD57948A169D9B1C0F80090AD
:1026F000FFF7F2F9074604E0FFF7EEF9C01B0228E6
:102700000FD8686A8007F7D571484FF4FA5100680E
:10271000B0FBF1F0009000BF0098411E0091FAD28A
:102720000EE080E0C0F80080FFF7D6F9074604E02D
:10273000FFF7D2F9C01B022875D8686A8007F7D462
:102740002078400760D5E8690027C00008D4E86910
:1027500040F08050E861E869012700F08050009067
:102760005C480168C90513D40168834641F480714F
:102770000160FFF7B1F9824606E000BFFFF7ACF950
:10278000A0EB0A0064284ED8DBF80000C005F5D5A0
:10279000E06801280AD008B1052813D0286A20F083
:1027A00001002862286A20F0040002E0286A40F054
:1027B00001002862E06841F2883B98B1FFF78CF98C
:1027C00082460BE0286A40F004002862EEE700BF72
:1027D000FFF782F9A0EB0A0159455AD8286A800709
:1027E000F6D50CE0FFF778F9824605E0FFF774F9BB
:1027F000A0EB0A0159454CD8286A8007F6D41FB1CE
:10280000E86920F08050E861E06988B36968C1F345
:102810008101022944D00228C6F8608004D0FFF765
:102820005BF9044638E034E0FFF756F9074604E068
:10283000FFF752F9C01B02282BD828688001F7D473
:10284000206AB0F5803F05D16868A16820F40030A7
:1028500008436860D4E908010843696821F47411E9
:1028600008436860C6F86090FFF736F9044606E052
:1028700025E000BFFFF730F9001B022809D82868BF
:102880008001F7D51BE000BFFFF726F9001B0228E7
:1028900002D90320BDE8F88F28688001F4D40EE047
:1028A0000128F7D06868226A00F48031914204D18F
:1028B000616A00F47010884201D00120EAE700202C
:1028C000E8E700000010024000004242800442425B
:1028D000240000200070004010B5401EB0F1807F41
:1028E00001D3012010BD4FF0E02460610F2160177B
:1028F00001F0CFF90020A06107202061002010BD69
:102900007047704770B590F83C20012A2CD0012404
:1029100080F83C40022280F83D2003685A689D6898
:1029200022F070060A6832435A60104B02689A42DD
:102930000ED00F4B9A420BD0B2F1804F08D00D4B06
:102940009A4205D00C4B9A4202D00C4B9A4204D1C9
:10295000496825F080031943916080F83D400021CB
:1029600080F83C10084670BD022070BD002C01406C
:10297000003401400004004000080040000C00400A
:1029800010B5040003D094F83D0010B107E0012019
:1029900010BD002084F83C00204600F01FF8022003
:1029A00084F83D00211D206801F064F8012084F8BE
:1029B000460084F83E0084F83F0084F8400084F824
:1029C000410084F8420084F8430084F8440084F80D
:1029D000450084F83D00002010BD000000B585B022
:1029E0000021009101910291039100680E498842F3
:1029F00017D10E48816941F400618161816901F458
:102A000000610491816941F0040181618069694636
:102A100000F0040004904FF4807000900448FEF72A
:102A200059FF05B000BD0000002C0140001002401D
:102A30000008014090F83D10012901D001207047A5
:102A4000022180F83D1000680E4988420ED00E49E0
:102A500088420BD0B0F1804F08D00C49884205D095
:102A60000B49884202D00B49884204D1816801F0A9
:102A70000701062903D0016841F00101016000202F
:102A800070470000002C0140003401400004004069
:102A900000080040000C004070B5044690F83C006F
:102AA0000025012817D0012684F83C60022084F814
:102AB0003D002068826822F0770222F47F42826023
:102AC0000868502838D00DDC20284FD005DC90B3A2
:102AD000102811D14AE0022070BD302846D040288D
:102AE0000AD13BE060282FD070280DD0B0F5805F70
:102AF00003D0B0F5005F12D0012584F83D600020BE
:102B000084F83C00284670BDCB68D1E901212068DB
:102B100001F00BF82068816841F0770109E0CB688B
:102B2000D1E90121206801F000F82068816841F4B2
:102B300080418160E1E719E0CA684968206801F0D6
:102B400006F85021206806E0CA684968206801F04C
:102B500045F86021206800F0F2FFCEE7CA684968B6
:102B6000206800F0F4FF40212068F4E72268014665
:102B70001046F0E710B51449144C884218D1007F74
:102B8000022815D10021104800F06BFA6060042182
:102B90000D4800F066FAA0606168401A01F01CF967
:102BA0000B4901F031F94FF0FF3101F02DFAE060EF
:102BB000E06801F0DFF802460B46BDE8104005A1D1
:102BC0000848FDF72FBB000038010020000000205E
:102BD00096430B3DE8B79DE7A6BB3A252E3266200B
:102BE000636D0000280000202DE9F041054690F8B3
:102BF0003C0000260C46012810D0012085F83C003E
:102C000072B1042A1CD0082A2CD00C2A50D00126DC
:102C1000002085F83C003046BDE8F0810220FBE74B
:102C2000D4E90012E368286800F0A2FF28688169EF
:102C300021F00C01816128688169A26811430FE0CD
:102C4000D4E90012E368286800F0DAFF2868816997
:102C500021F44061816128688169A26841EA02210A
:102C60008161D5E72868D4E9002C277B036A016AD3
:102C700021F480710162C16923F4007321F0030122
:102C800041EA0C0121F0F00C39074FF400774CEACF
:102C9000116107EA02221A43C16102622868C16910
:102CA00021F00C01C1612868C169A26811432BE0C1
:102CB0002868D4E90021E768036AD0F820C02CF422
:102CC000805CC0F820C0D0F81CC023F400532CF462
:102CD000407C4CEA012121F4704C4FF6FF7101EA6F
:102CE00007314FF4005741EA0C0107EA02321A4358
:102CF000C16102622868C16921F44061C16128682C
:102D0000C169A26841EA0221C16181E710B50400EE
:102D100003D094F83D0010B107E0012010BD002061
:102D200084F83C00204600F01EF8022084F83D00A4
:102D3000211D206800F09EFE012084F8460084F8E2
:102D40003E0084F83F0084F8400084F8410084F895
:102D5000420084F8430084F8440084F8450084F875
:102D60003D00002010BD704710B5044651B1042944
:102D70000DD0082910D094F8410094F8452001287E
:102D800011D10EE094F83E0094F84220F7E794F851
:102D90003F0094F84320F2E794F8400094F8442070
:102DA000EDE7012A01D0012010BD022049B304291A
:102DB0002CD008292FD084F8410084F84500012246
:102DC000206800F0A5FE1649206888420ED01549FB
:102DD00088420BD0B0F1804F08D01349884205D00B
:102DE0001249884202D01249884204D1816801F018
:102DF0000701062903D0016841F0010101600020AC
:102E000010BD84F83E0084F84200D8E784F83F0003
:102E100084F84300D3E784F8400084F84400CEE708
:102E2000002C014000340140000400400008004034
:102E3000000C004030B50446002551B104290DD0E6
:102E4000082910D094F8412094F84500012A11D1A6
:102E50000EE094F83E2094F84200F7E794F83F2003
:102E600094F84300F2E794F8402094F84400EDE72A
:102E7000012801D0012030BD022059B1042912D00F
:102E8000082919D084F8410084F845000C293ED067
:102E900001253AE084F83E0084F842002068C268C8
:102EA00042F0020210E084F83F0084F843002068FA
:102EB000C26842F0040207E084F8400084F844004D
:102EC0002068C26842F00802C2600122206800F057
:102ED0001FFE1149206888420ED0104988420BD04D
:102EE000B0F1804F08D00E49884205D00D49884284
:102EF00002D00D49884204D1816801F007010629FA
:102F000003D0016841F001010160284630BD20680E
:102F1000C26842F01002D7E7002C014000340140A3
:102F20000004004000080040000C00402DE9F04182
:102F300004460068C66805694FF00007A90713D565
:102F4000B10711D5F91E0161012020772068806941
:102F50008007204602D0FFF70DFE04E000F07EF867
:102F6000204600F07CF82777680716D5700714D53F
:102F700021686FF0040008610220207720688069D2
:102F800010F4407F204602D0FFF7F4FD04E000F08B
:102F900065F8204600F063F82777280715D5300735
:102FA00013D521686FF0080008610420207720689D
:102FB000C0698007204602D0FFF7DCFD04E000F086
:102FC0004DF8204600F04BF82777E80616D5F006B6
:102FD00014D521686FF01000086108202077206860
:102FE000C06910F4407F204602D0FFF7C3FD04E023
:102FF00000F034F8204600F032F82777E80708D0D0
:10300000F00706D021686FF001000861204600F04B
:1030100027F8280608D5300606D521686FF080000D
:1030200008612046FFF76CFC680608D5700606D5D7
:1030300021686FF040000861204600F027F8A806DC
:103040000AD5B00608D521686FF020000861204637
:10305000BDE8F041FFF755BCBDE8F081704770470F
:1030600070470246002041B1042909D008290AD03E
:103070000C2901D11068006C70471068406B7047D4
:103080001068806B70471068C06B70477047000015
:1030900070B501220B4D940221462846FEF716FD1D
:1030A0000022521C0A2AFCD3002221462846FEF7A1
:1030B0000DFD1420FEF7FCFB03490020096848625F
:1030C00070BD0000000C014038010020FEE70168DF
:1030D0004A69D24352050FD46FF480624A610021DD
:1030E00040F8301F202242738173026942F00402CB
:1030F000026101730120704700207047F8B5044653
:10310000C06A1E460D461746082807D0012805D07C
:1031100010F5803F02D0206B122804D1206801688E
:1031200041F480710160134600224FF001112046E6
:10313000009600F05DF840B120680068C00502D537
:103140004FF4007020640320F8BD2069B0F5804F73
:103150000ED00620216800EAD51040F0F00008618A
:1031600033463A460B49204600F08AF878B902E027
:1031700005F0FE0000E0E8B2216808610549334629
:103180003A46891F204600F07BF80028DCD0012059
:10319000F8BD00000800010070B516460D46044653
:1031A0001EE02046FFF793FF08B1012070BD681CA8
:1031B00016D0FEF791FC801BA84200D885B9206884
:1031C0004069C04340070BD5002044F8300F202150
:1031D0006173A073216941F0200121612073E4E74C
:1031E00020684069C0434007DBD4002070BD000068
:1031F0002DE9F047984617460D460446C1F30746A9
:10320000DDF820902AE000BFB8F1FF3F26D0FEF79E
:1032100063FCA0EB0901414502D8B8F1000F1DD1B4
:103220002068012E16D0806925EA00000004000CF9
:1032300012D00020B84211D1002044F8300F2021D4
:103240006173A073216941F0200121612073012085
:10325000BDE8F0874069E7E70120EBE72068012E31
:103260000AD0806925EA00000004000C06D0002086
:10327000B842C9D00020EBE74069F3E70120F7E747
:103280002DE9F047984616460D4604464FF00009D2
:103290004FF0200AC1F3074723E020684069C0438C
:1032A000400515D42068016841F40071016021686F
:1032B0006FF480604861C4F8309084F83DA084F8D1
:1032C0003E90216C41F00401216484F83C9021E09F
:1032D000701C06D0FEF700FCA0EB0800B04203D83B
:1032E00016B1012F1FD021E02068012F15D0806971
:1032F00025EA00000004000C18D000BF44F8309FFD
:1033000084F80DA084F80E90216941F0200121611C
:1033100084F80C900120BDE8F087406925EA0000A0
:103320000004000CEAD12068406901E0206880694F
:1033300025EA00000004000CAFD1ECE770B516469A
:103340000D4604461EE02046FFF7C1FE08B10120ED
:1033500070BD681C16D0FEF7BFFB801BA84200D8CA
:1033600085B920684069C04300060BD5002044F8A9
:10337000300F20216173A073216941F02001216188
:103380002073E4E720684069C0430006DBD40020D6
:1033900070BD10B5406A01684A6822F003024A60B5
:1033A000002141844185012180F83510816B41F075
:1033B00008018163FEF71EFD10BD10B50146406A8D
:1033C000896949B901684A6822F002024A6000210D
:1033D0004184012180F83510FEF79AFE10BD10B52A
:1033E000406AFEF7A1FE10BD094808B5416941F0E9
:1033F000010141614069002200F001000090114686
:103400000F20FEF7F9FEBDE808400F20FEF7E6BEEC
:10341000001002402DE9F04186B0002420480094BD
:10342000019402940394816941F0200181618169D2
:1034300001F020010491816941F0080181618169F5
:1034400001F008010491816941F004018161806902
:10345000144F00F004004FF48065049000222946C8
:103460003846FEF733FBDFF8408000220421404657
:10347000FEF72CFB0095022601250396CDE90154A9
:1034800069463846FEF726FA0420CDE90005CDE965
:10349000024669464046FEF71DFA06B0BDE8F081D7
:1034A00000100240000C0140001401400D4810B50E
:1034B0000B4901600C49416000214FF4804281605A
:1034C000C0E9031241618161C1610162FEF70AFB3B
:1034D000002803D0BDE81040FEF74EB810BD000034
:1034E0000054004064000020801A06000C4810B50B
:1034F0000A49016049154160002181604FF4FA5288
:10350000C160C0E904128161FEF7D2FC002803D03B
:10351000BDE81040FEF730B810BD00000038004094
:10352000B800002010B58AB00024284804940594FF
:1035300006940794089409940094019402942249F3
:10354000039401604721C0E901144FF6FF71C0E9FF
:10355000031444618461FFF713FA08B1FEF70CF815
:103560004FF48050049004A91848FFF795FA08B169
:10357000FEF702F81548FFF7C9FB08B1FDF7FCFF9D
:10358000089408A911480994FFF7BCF908B1FDF7A0
:10359000F3FF0120CDE900400294002269460B4868
:1035A0000394FFF721FB08B1FDF7E6FF022000902E
:1035B0000190042269460548FFF716FB002801D058
:1035C000FDF7DAFF0AB010BD002C014038010020E1
:1035D000FEE7FEE738B500F07DF800240D4B0E4AFB
:1035E00021462046009400F08DF80B4A094B283AFA
:1035F00012210020009400F085F8074A054B143A88
:1036000024210020009400F07DF8BDE8384000F04F
:10361000ABB900000C1B01085000002010B5AE2013
:1036200000F0DAF8202000F0D7F8102000F0D4F8ED
:10363000B02000F0D1F8C82000F0CEF8002000F053
:10364000CBF8102000F0C8F8402000F0C5F8812029
:1036500000F0C2F8DF2000F0BFF8A12000F0BCF8B5
:10366000A62000F0B9F8A82000F0B6F83F2000F03E
:10367000B3F8A42000F0B0F8D32000F0ADF800209B
:1036800000F0AAF8D52000F0A7F8F02000F0A4F888
:10369000D92000F0A1F8222000F09EF8DA2000F0F6
:1036A0009BF8122000F098F8DB2000F095F820201D
:1036B00000F092F88D2000F08FF8142000F08CF8C4
:1036C00000F008F800F050F9BDE81040AF2000F01D
:1036D00083B800004FF480610148FCF7AFBE0000E2
:1036E000010200203CB51C78059D203ACDE900453B
:1036F0005D68E41D5B78E408544303FB045200F06A
:10370000CBF83CBD2DE9FF4F18785978C01DC00893
:1037100000254843001D83B01C46174600F0FF0AF1
:103720002AE07819814600F087FA5FEA000826D07F
:1037300000260AE06168484606FB0A1B42465946D5
:10374000FCF70BFEF0B1761CF6B2207AB042F1D84D
:1037500010980090E368B8F1010F20D0DDE9030173
:103760002022FFF7BFFFE068417803980844C0B209
:10377000039005EB080085B2785D0028D1D107B031
:10378000BDE8F08F10992078CDE900016378DDE97C
:1037900003010BF1040200F07FF86178E5E77A5D40
:1037A000DDE90301FFF79EFFE0686D1CADB24178D3
:1037B00003980844C0B20390DEE7000008B54FF05C
:1037C000FF3200920B46024678210248FEF74EFA7D
:1037D00008BD000064000020024948700221014831
:1037E000FFF7ECBF160000202DE9FC4180460720C2
:1037F000CDE9000301F00704CD08164602FA04F0F3
:103800001F46C2B223464146284600F089F8002CE4
:103810000CD0601EC0B2CDE90007C4F1080026FA42
:1038200000F2681C0023414600F07AF8BDE8FC81F4
:103830002DE9FC4301F007061446CD089846814661
:1038400001F0070106EB080204FA01F0099F082ABB
:1038500016D90721CDE90017C2B23346494628469A
:1038600000F05EF808EB06000938C0B2CDE90007A9
:10387000C6F1080024FA00F2681C0023494607E05C
:10388000521ED1B2CDE90017C2B23346494628468E
:1038900000F046F8BDE8FC832DE9FF4F82B01D46DD
:1038A0000F989346C70800F007008846002601904D
:1038B00018E0029800240BEB060A00EB06090DE065
:1038C00004FB05F0109B10F80A2008EBC400C1B2FD
:1038D00009F0FF00FFF788FF641CE4B2BC42EFD39D
:1038E000761CF6B2AE42E4D30198002815D005FB51
:1038F00007F6002408EBC7070DE010980090311977
:1039000002981BF801202044F9B2C0B2019BFFF7D6
:103910008FFF641CE4B2AC42EFD306B0BDE8F08F79
:10392000F0B50828DDE9056419D2802917D20CB159
:10393000D243D2B2FF25761C05FA06F6C3F108037E
:10394000084F46EA0204DD4007EBC017044B785CE1
:10395000B2432C43AA4320401A7010437854F0BD60
:10396000140000200102002070B5104D40200024FA
:10397000287005F1810600BF04F1B000C0B2FFF766
:103980002BFF0020FFF728FF1020FFF725FF06EB95
:10399000C4118022681CFCF70CFD81210348FFF74D
:1039A0000DFF641CE4B2082CE6D370BD800100203A
:1039B0007047000006480178002908D0C068054912
:1039C000884204DA46F624210348FDF721BD7047FA
:1039D0000000002000004843844000080148FEF732
:1039E0000ABA0000B80000207047FEF79FBB30B550
:1039F00095B028216846FCF743FD14210AA8FCF77E
:103A00003FFD18210FA8FCF73BFD01210804CDE97B
:103A100000100024029402250491CDE907504FF4D0
:103A2000E01009906846FEF7C7FD08B172B6FEE7E0
:103A30000F20CDE90A054FF48060CDE90C4002214A
:103A40000AA80E94FEF7DCFC08B172B6FEE704206B
:103A50000F9012940FA8FEF75DFC002801D072B6FB
:103A6000FEE715B030BD70470148FFF75FBA0000B0
:103A700038010020F0B50268204C214D214E224F24
:103A8000224B4FF0804CA04209D0984207D06045AD
:103A900005D0A84203D0B04201D0B84204D122F0F0
:103AA000700E4A6842EA0E02A04209D0984207D03E
:103AB000604505D0A84203D0B04201D0B84203D13E
:103AC00022F44075CA682A434D6922F080022A43D5
:103AD00002608A68C2620A688262A04201D098428B
:103AE00001D109690163012141610169C90703D05D
:103AF000016921F001010161F0BD0000002C0140CD
:103B00000004004000080040000C00400034014068
:103B100010B501F01F030121046A99408C4304622F
:103B2000016A9A401143016210BD10B5846842EAEF
:103B3000032224F47F440A432243826010BD82683A
:103B400022F070020A4342F007018160704710B50D
:103B5000036A046A24F001040462846924F0F00416
:103B600044EA021423F00A020A438461026210BD8F
:103B700070B5056A046A24F0010404628469124E77
:103B8000B0420ED0114EB0420BD0B0F1804F08D0F1
:103B90000F4EB04205D00F4EB04202D00E4EB04292
:103BA00003D124F00304144301E044F001041A0794
:103BB00024F0F00444EA126225F00A0301F00A013D
:103BC00019438261016270BD002C01400034014044
:103BD0000004004000080040000C004010B5036ADB
:103BE000046A24F010040462846923F0A00324F41E
:103BF000704444EA023243EA01118261016210BD5D
:103C000030B5046A056A25F010050562856925F45A
:103C1000407545EA022222F470454FF6FF7202EA2F
:103C2000033224F0A0032A43A02404EA011119431B
:103C30008261016230BDFEE70078010601D40120F7
:103C400070470621B1EB501F01D1022070470E21B1
:103C5000B1EB101F01D1032070471E21B1EBD00F33
:103C600001D10420704700207047490050EAC1206C
:103C700018BF04204A0D18BF40F0010040F2FF7247
:103C8000B2EB515F08BF40F00200012808BF0520D9
:103C900070470907090E002804DB00F1E02080F8D6
:103CA0000014704700F00F0000F1E02080F8141DB0
:103CB000704730380A2801D2012070470020704731
:103CC000FEF73CFAFFF793FEFFF7A4FBFFF78CFB30
:103CD000FFF728FCFFF7EAFBFFF708FC1420FDF7CD
:103CE000E7FDFFF79BFC0D48FEF7A4FE00210B4803
:103CF000FFF73AF804210948FFF79CF8084C09A19E
:103D00000D48FCF78FFAFFF7C3F9E068FFF752FEA2
:103D1000FFF760FCFDF78CFBF1E7000038010020A5
:103D200000000020E58092E8BDA6E8AFB7E6B3A8A2
:103D3000E6848F21212100005000002010B50029C9
:103D40000AD00878002807D005487844FCF750FFCF
:103D5000002801D0002010BD0248784410BD0000AA
:103D6000C2DE0000BADE00000808A0F500114FEA2C
:103D70003101704743004FEAD30C4FEA3C0C4340FB
:103D80001FBF40070CF1605113F0FE4F70471CF04D
:103D9000006F03D100200CF0004170470CF000438D
:103DA00043EA507010B540EACC0000F0AEF800BF16
:103DB000000000924FEA0001FFF7D6BF4FF000412C
:103DC0004FF00000A1F5002170470000014800F00D
:103DD000E9B800BF0000C07F10F0004148BF40427A
:103DE000B0FA80F310FA03F2C3F19D030BD051EA4D
:103DF000C35101EB1220530638BF704700F1010098
:103E000008BF20F0010070474FF47F0C1CEAD0126D
:103E10001EBF1CEAD11392EA0C0F93EA0C0F00F0BC
:103E2000478090EA010F48BF42F480724FF0004C87
:103E30004CEA00204CEA012102EB0302A0FB011333
:103E4000A2F50002002918BF43F001035B0028BF60
:103E50004FEA330342EB22425FEA132C4CEBC25091
:103E60002EBFBCEB436FB2F57C0F70474FEA036C7B
:103E7000BCF1004F08BF20F00100B2F57C0F38BF45
:103E800070470BD582F0FF0212F5803FC8BF704724
:103E900000F1C040D8BF00F00040704700F5000CB2
:103EA0005FEA4C0C48BF7047B0F1C04000F073B8F7
:103EB00090EA010F0CEAD11348BF42F480726245C8
:103EC00038BF634504D280EA010000F0004070472B
:103ED00010B500F01AF800BF8900013E00F007B8E5
:103EE00000F009B85FEA410C5FEA1C6C08D080EA78
:103EF000010000F050B85FEA400C5FEA1C6CF6D19C
:103F00004FF00040A0F5800070470EF1020E2EF039
:103F1000030E5EF8044B244204D44FEA4102B2F18E
:103F20007F4F11D84FEA4003B3F17F4F0CD80ED129
:103F30004FEAD07CB2F17F4F0CEB4C0C0CF1020C31
:103F400008BF4CEBD17C04E04FF0080C01E04FEAD5
:103F5000D17C0CEB4C0324FA03F404F00704B4F115
:103F6000040C06D20EEB840CBDE810404CF0010CA2
:103F70006047DFE80CF0070802024FF00040A0F5B0
:103F8000800010BD0846420018BFD2F1807288BF81
:103F900000F0004010BDFF2141EAD050C00570473D
:103FA000FCF771BB0CF00F03092B08BF082000F0D1
:103FB00051800A2B0BD0082B18BF704708BF1CF08C
:103FC000400F0AD04FF000004FF0000170471CF086
:103FD000400F18BF4FF0004070471CF0100F08D082
:103FE00020F0704300F07F4242EAD3014FEA437071
:103FF000704700F0604021F07F4242EA000201F089
:104000007F4040EA727070474FF0FF0212EAD052D0
:104010001CBF92F0FF038B42C2BFD14200EBC150E4
:104020007047002A0AD0002B0BD0002900F0004076
:10403000A4BF40F0FE4040F40000704700F0004094
:10404000704743024FF00B0C18BF4CF0806C7FF4AC
:10405000BDAE70471CF4801F11D01CF4E02F03D0BC
:104060006FEACC31490070474FF04050EFF30082C7
:1040700022F0704242EA000282F3008870474FF05B
:10408000000070474C00DEFF45FF88FF36009A00B5
:1040900077006900C9002601F1005E000200F8FF08
:1040A000EFFF98FF48FF8DFF5600CB006B007DFFB0
:1040B00003FF3FFFD5FF0D00D9FFACFFC4FFF2FFA8
:1040C000F6FFBFFFABFFF0FF8800DB00AD0038005C
:1040D000FAFF4400A400AD004B00F4FF08003C00D0
:1040E00045000700EDFF02001500B0FF24FF06FFAA
:1040F00078FF1F007A005400E9FF84FF65FF9CFFF2
:104100002500B5001B011B01A100E0FF57FF6CFF5C
:10411000FFFF760072000400CEFF16009C00A10095
:1041200012006BFF4EFF9CFFA9FF38FFCDFEFFFE84
:10413000B4FF6D00B800AD0073003F0026001E0004
:1041400035003D003700FAFFB3FF83FFDAFF91002F
:10415000FD009500A3FF1BFF9CFF8700940079FFE3
:1041600050FE62FEA3FFDE000D0192004A003D00FA
:10417000070087FF73FF1700EF002801A200070068
:10418000C0FFC3FFCFFFDDFF110041002E00ACFFD9
:104190002AFF19FFA3FF350030009CFF06FF1AFF1E
:1041A000BDFF7300C800A30078008300BE00860036
:1041B000A4FFBAFEA8FE77FF5E00AA008E008B0067
:1041C0008E00340061FFA6FE93FE5BFF6100D3000A
:1041D0006E00CDFFCEFF5D00CA008C000B00CBFF50
:1041E000C2FF9EFF47FF05FF29FFE1FF1E011E02E0
:1041F0002802FF0053FFE8FD26FD6BFDC2FE8E0086
:104200005B017C00F8FE8FFEAAFF0E013601130051
:10421000E3FEE6FEF0FFBD009900200081001E01D4
:104220007C0005FEB7FB84FBA1FD44002002800258
:104230008A01B1FF6FFEA0FEAFFFE4FFB2FE61FD99
:10424000B2FD11002B03C7045C036AFF68FB04FA8C
:1042500019FC2A00C6030205C8036B019EFFB8FEC5
:10426000E9FDABFC08FC0BFD57FF3C01D5019001BB
:104270002D01DC00460073FF42FE2CFDCBFC96FDB9
:10428000D6FE90FFC8FFA3005A02DD03B303BE01B0
:10429000DDFE75FCE4FBE3FD8F0173049D04120257
:1042A000D4FE05FD6BFD2EFFB3004A019D01AB025C
:1042B0002A04C9049F033F01DDFE96FDD1FD13FFD3
:1042C000EDFF7BFFAEFE99FF99029E053D065C0463
:1042D0002B01ACFD35FAB4F799F7B9FAAB00B40786
:1042E0009B0CE60BAC04AFFA5BF486F5CEFCFA044B
:1042F0003B09050873038AFFEFFE4601620364026F
:1043000051FE9AFA77FB9A01AA089D0AE505BCFEC0
:104310005AFAEDF933FBA4FC98FEF5006F021E0279
:10432000E500FFFF0C005B01B8039305C2046901BF
:10433000FEFEC800C50526097906A9FD47F37CEDF8
:1043400015F0C3F9D904410B650ADD04E1FF27FF2D
:104350009601BB023F008CFC06FC38FF7C02BF02CA
:10436000900070FEA8FDD9FDF0FDC3FC53FA3AF9A8
:10437000ABFCD203D3083F07C80195FF650348088B
:104380004E0797FED0F20DEB4FEC18F79206D412C1
:104390002C15320D6601B9F9DDF87AFA9AF9FBF6B7
:1043A000C7F73CFE2B06CA099107230238FC68F7C1
:1043B00080F4DCF3D7F497F701FE210811110E12F7
:1043C000520AD400E4FCD1FE8B0002FD2FF5DDEE95
:1043D000F2EF96F928070811E911310A78FF21F860
:1043E00052F7C1FA58FD2DFC40F949F97AFEA806AA
:1043F000190D090E910828FFF4F5C0EFD7ECBCEDBC
:1044000020F518040E15CC1D2519860BFDFD2CF585
:1044100065F0BDED81EDE2F075F843034A0EF71447
:10442000F1135B0C5C03A5FD3EFCA8FCF3FB27F934
:10443000FDF5B2F5DBFAE704990FD5143E110F072D
:10444000D0FCD4F637F474F212F3F9F9F005130F37
:104450009C0E49067CFD07F976F8B3F9AAFBD6FD58
:104460003F006804670B19126312BA0961FD7FF5FA
:10447000BDF5D8FA98FFBF0025FECBF9F1F71EFD78
:104480005F093B159B16740AB8F8EBEC47EB91EF0C
:1044900083F5E7FDD00980145516020E230237FA82
:1044A000E5F788F880F912FADBFABDFD6104170D13
:1044B00046124B0FA9053FFBFDF4B3F3EEF56EF981
:1044C000C2FBE3FBD9FCAA036810B61AEB17A106DE
:1044D0000DF142E4BAE4CCED7EF90106A312521BC1
:1044E000A81AE70F1F0001F23EEA5BEB61F42BFF15
:1044F000F803F701480186081613E015E20C7DFF6A
:1045000055F6EBF240F299F388F745FCA2FF42041E
:10451000B10ED71B491FE10FAFF45BE07ADF61ED0D
:10452000AFFC4806B10CA5125414F00CEBFE97F248
:104530002CEE33F103F8B0FE66022B021201CF031A
:10454000C10AF60FFC0CE60104F557EDC0EDD5F3FA
:10455000EAF951FBCBF9D6FC9F09C81ABB225418C3
:10456000D9FF07E8A8DD53E380F2B702A10E2114BA
:10457000B212120BA2FF68F4C9EDE0EEE1F6F2FF11
:10458000A402F5FD96F92CFE740A28145513E809C7
:10459000B5FE76F51FEFDCED6BF30FFC1F01DC01C0
:1045A0001D05A10EF316501264FFD7EABDE249E9DA
:1045B00058F546FE5F037408BE0DCF0E5708A2FCE7
:1045C00012F29CED33F097F619FCD4FDFFFD890142
:1045D000220AA412A9133C0BFDFD81F203EDB2EEF9
:1045E0009BF589FCE8FE79FE5E02F40DF719F219DD
:1045F0001609D6EF61DDD4DBFBE9A6FD010C8710BF
:10460000630E9F0ABB06D700FCF865F37CF4B0FA92
:1046100057FF41FE45FB12FE580896127214C60C55
:10462000EE006FF5A0ECCCE903F0C8FB9703D402D1
:10463000C8002307B7136418C70B65F4C5E275E11A
:10464000E9EDF5FD4D09530EF90FF6107610490B03
:104650009500BEF4BFEED6F1CDF910FFB4FE77FDA4
:104660009401A00A7A116410FE07C6FCC7F277ED28
:1046700024F0C9F98503E8068B06960ABC143E1B94
:10468000311393FDA9E72ADF74E79CF809074D0C65
:10469000CF0A3709840AA30A620419F9B8F063F152
:1046A0005BF847FD1BFCDBF98AFEC60A401643187F
:1046B000D20F5102B5F523EE55EE98F588FDAAFF0D
:1046C0000AFE1502770F2F1C9119B00422EA82DA34
:1046D00032DD7AED7A00370D9E11C711271279115C
:1046E000E10A10FD0FEF44EA15F125FC1402340134
:1046F0005B00E0058E0FC514730F66019CF177E730
:10470000E0E757F241FFD004B90122009D09781972
:10471000461F9910B5F415DE53DAD7E8ABFD0E0C41
:10472000460F580CB30AA80BCC09C800F0F340EBB5
:1047300076EBEFF11CF961FEE103C70B5214191877
:104740003F136A065CF67BE93FE66BEF9DFF1B0BB0
:10475000F00A3A05440659106F170A0F57F986E513
:1047600003E18BECEFFD8B09D10ABB060E06C00BF3
:104770003C11BD0DBF004EF3BBEE83F3A1FAE1FD8A
:1047800034FE51014B0A1515A9192F13AB033BF247
:1047900041E746E82DF41102B308000854098612D7
:1047A0003B1C8A182A03B5E720D83EDE2CF5670D9E
:1047B00059185413B60875049207CE08FC0021F46A
:1047C00076ECF6EF46FB3E063B0BBD0A9209410B29
:1047D0006E0EC20D5E05FFF66BEA9FE8BFF35E0347
:1047E000910AAF0522FF5F033E11E419241140FA3C
:1047F00041E411DD06E80AFD7E0E5D13830E070A13
:104800003A0B9A0C620663F9DCEE7CEE3FF7BC01D2
:104810003707CE06E9048106A10BCB0ECE0915FCA5
:10482000E2EC0EE74EF02B027A0D0E09C2FCECF919
:104830003D07C7174C19C40711F166E68CEDC9FD99
:1048400065082F0566FAB5F67E01EB11A1173A0C43
:104850007EF863EA90E8DFEFC9F886FEED013F07D6
:104860002210C217A716E20906F7DDE8FEE727F4D3
:104870003C039F09F905CD02AC09E1155A187B08E4
:104880008AEE8BDC09DF21F364096611530848FBCB
:104890004CFAEC063F13D31136035DF3EBEC95F1C4
:1048A00077FB09031A05EF04F3073E0E6611740B3C
:1048B00005FEDDF03FEBF5EE0EF8CDFFC6013D0045
:1048C000D101E109F1123E136806A9F201E558E7AA
:1048D000C9F76909B00F8D0A0905FA06E90BC9097C
:1048E00073FEB2F1E9EC95F23CFE4108C80A4206BB
:1048F000990157039A09580B9E021AF447EB29EFC6
:104900009DFBA305F00539005DFEBB052911451689
:10491000E50EE3FDF1ECB7E630EF02FFB8083B0629
:10492000EFFF5602680E8F173612F7FFEBEC5EE4CE
:104930009DE974F78F04F609AD080B088A0C541131
:10494000440D59FE4FEE01EA5AF4EF02DA08610411
:104950000F007C05BE113A189D107DFEA8ED95E86C
:104960007DF18200A70821036EF7CDF48C01F312CC
:10497000B218780DD7FA58EE1BEE72F6FBFED9018D
:104980005D009401280AAC158119F20EC8FAE9E914
:10499000B0E66DF0DEFCBC02B6021205180E65171B
:1049A0004C16BA07D1F3F2E640E8EDF4DA023B0820
:1049B000560429008204310F6B14B90B8BF949EBB3
:1049C000D3EAA1F6E60386086203EAFC28FE3A076A
:1049D000330F250DD40089F292EB56EF55F9A20161
:1049E000CF03B2027004950AD50F5C0DE50118F3F0
:1049F0006EE9B0EA73F51501CB04B1005EFE170550
:104A0000EA0FF2112B054CF1E1E40BE83DF7F20659
:104A1000EC0CF50781000A000507370C800743FB03
:104A2000D0F142F2FFF9CA006401A7FDAEFBC9FF55
:104A300081083E0FA60D2C0388F62CF00CF3DFF94D
:104A4000A2FC3DF96EF6BAFC590CAF1A271B100BED
:104A500090F485E699E811F689026905F20046FFAF
:104A6000480615109710380359F148E921F06CFDFC
:104A70009704F900FAF8BDF696FE300B4512A10D29
:104A8000AC0068F539F397F897FD7BFCCDF76FF72D
:104A90008D00380FCD18C2149F044FF309ECA0F01D
:104AA000DAF880FBD2F7F1F569FD6D0C4918D016E4
:104AB0006D07F7F3DBE84DEBF1F595FEDBFF8EFDBF
:104AC00062FF43082F122E149B0A88FB6AF1F7F14C
:104AD0002FF9FAFDDDFBB5F7AFF9D303150F3C1243
:104AE000750A3FFD80F35DF2BEF750FC92FA1DF5AA
:104AF000F1F4EBFF0A11F01B1118420816F706EE4D
:104B000043EF38F641FC1BFE72FE9802AF0B4B13CD
:104B1000C110AD0206F2D3EAB9F01FFCCF0179FE55
:104B200025F912FB8205E30FA9108B06DBF951F47E
:104B300054F843FF860050FA91F358F5BB015F111A
:104B40005619F913AD0423F5D9ED2DF0E2F5EAF786
:104B500000F625F71A01F80F8C18EC129602F7F2FE
:104B600005ED95F006F79AFAAAFBBCFEE806591186
:104B7000BC1666112603D3F446EF94F3CAFA12FD6D
:104B8000FFF90DF852FD760892115D113207BFF959
:104B9000BFF119F3CCF9C4FDEAFAA1F54AF6C70052
:104BA000ED0F5E190F16EE07A2F866F182F366F8B4
:104BB00007FAD2F9CDFD3D089213CC179611630484
:104BC00023F7C0EF3CF0BCF550FB36FE210051044A
:104BD000400B2711091115090FFD8FF4F7F44CFC58
:104BE0009402BC012CFCFAF980009E0C7415081488
:104BF000E608A4FB3AF477F458F714F8D6F70FFC5C
:104C0000AB06AC129318FA145E0AC7FDBCF3BAEEF9
:104C100050EF28F4D5FA73019707A90DEF1220146D
:104C2000FE0D72011FF539F0E4F372FAD9FDEBFDC8
:104C30004CFF7605500EB513F0100B0726FC15F649
:104C400055F546F65DF64CF7FCFB3F04D10CA5127A
:104C50005014EF1004083EFB68EF89E958EBB3F2FB
:104C60000AFC3205600DA913A115DB10920551F85D
:104C700075EF5BEE07F36CF8EAFB67FF4B062F104E
:104C80006117D115E70A88FC7AF1BBEC57EDF0F11A
:104C90007AF9BF01BC07AF0AD80C590F2A0F0A08CE
:104CA00028FB6EEF68EBF9EE54F582FA0EFF37053C
:104CB0004D0DD713EC132C0B7AFCBCEE26E843EA1F
:104CC00005F200FB5B027907D30AB10C340C0F0824
:104CD0000D00B3F6DEEF56EED7F1F7F747FE890386
:104CE0000D084D0CA40F360F7C08D2FC89F267EF3B
:104CF0006FF3D4F82AFB3AFB63FDFE03140D701327
:104D0000BB1178066FF659EAFAE705EE2BF7A6FF16
:104D10008406020BE00B63096105C2002FFB5BF503
:104D20006CF270F4A9F947FEE900CD035B09691044
:104D3000F3132A0F270221F328EA1AEB20F34AFC87
:104D4000A202F805C8079E088D07910329FDC6F643
:104D500044F3CAF36DF799FCEE01F9059007B30728
:104D60001D09ED0B640BE6027DF5C3ECEDEE49F891
:104D7000220078021E0217039205660632033AFCEF
:104D8000BEF4A9F030F241F89AFFE204E7051703F8
:104D9000FFFF3301E406E40A8F0627FBF0F1B8F2C7
:104DA000A1FBC403E604000121FEF3FED30047008B
:104DB00063FD67FA89F887F74FF814FC8D01240426
:104DC000940135FDE8FCF301A707BB08EB0448009C
:104DD00096FEBEFFC30046FFFAFBF7F931FB97FED4
:104DE0004301D001E6007CFF03FE17FDD7FD60FF05
:104DF000D4FEFDFA6CF73CF9A2001E08C20ACD08E9
:104E0000D905EE039E0258012000A3FE74FCA8FA07
:104E1000A3FB51002F06CA08CB057BFFDEFAF5FA8B
:104E200070FDA2FDE5F99CF531F554F956FF230418
:104E300079066B0602059D037503F0032A0363FFE1
:104E400057F994F4DDF5CAFE3C0B4713F511A6099A
:104E50000D0116FC08F9D1F460F0E9EFA6F51CFF8E
:104E60007707760BB30ACD0690023D0068FFD9FCA8
:104E7000A4F6D4EF00EFD9F70B0767145419FE140A
:104E8000ED0B8D0359FEF0FA06F752F28FEF35F273
:104E900071FB15081C12C3143E107708DF00A6F939
:104EA000DDF1BAEAF3E7C7EC5CF9D00948177A1BE1
:104EB000EC14E5087EFF64FC0FFC79F8C1F046EBCA
:104EC0004AEF8AFDCC0ECE19141ABA11E006A6FEDE
:104ED0005AFA2EF7F6F18DEB77E9E7F0B300F91007
:104EE00059193B17AE0E900541FF0EFB36F686EFC3
:104EF0001AEA46EC7AF9E40CB31B381EA215D10865
:104F0000BDFD8CF639F362F2CFF19AF167F5350009
:104F1000D60DA61566136C0BCF03C0FDBAF7C2F20F
:104F20009CF115F4FEF77DFDEF06931255198115DE
:104F3000AA09B9FD17F71CF5A2F431F4C2F47BF805
:104F40005000820A401205137F0C3C025CF847F1C6
:104F5000A2EE45F159F7E6FCEDFFBC025608320F10
:104F600060128C0EB804B6F815EF59EC22F243FC2F
:104F70002903BB03D8029E06D30DB410F20A5500D4
:104F800096F787F244EF09EEBBF195FA0E04500A4A
:104F9000370E2611B70FB7045FF255E3A7E14CEDCA
:104FA0008EFD4409A40CA5090905BD03E206810A8A
:104FB000180875FDEFEF5EE978EF7AFE5E0B780D6D
:104FC0000F06B5FE13FFCF04D906F4FF3BF4E2EB66
:104FD00010EB3FF055F8D8001507DD08DB077A081D
:104FE000B20B9E0B0402C5F18AE6A9E9C5F88B084D
:104FF000730F3C0DF707F704B904A504F0012EFB6D
:105000000CF1E8E76BE633F0A300870DC40F9D09B0
:1050100080034A03C1067C0630FE2FF20AEC2BF116
:105020006FFD9B07CB0A3D09B5074208490ACB0B28
:10503000F4088BFD1CEB9BDC61DE03F154072013AD
:105040001412680B8005A201D2FF46002D00D0FA91
:1050500016F179ECBFF4C80538126F12BE0B910837
:10506000D70B920E65099DFCB8EF31E946EA87F04F
:10507000BBF9BA037E0B420E400D320C0E0C4D08EC
:1050800090FC13EC1EE1B8E304F2D702920E781400
:1050900021170B1785125F09C9FED1F5AAEEC9E8E1
:1050A00092E665ECFCFA310C551780186F121C0A59
:1050B000BA018DF90BF2CCECA9EA91EC6EF3EFFE9C
:1050C000E10A4112A91359121A11C60E680840FDCF
:1050D000DFEFFEE4F3E12FEAF9FBE50F641D612049
:1050E0004D1A530F1103E4F7D1EE6CE8CDE517E943
:1050F00078F36702231097177E1823161213310EC8
:10510000ED0489F769EADDE3B6E7D9F456053E1206
:10511000EE178A173C1424104B0BC40439FB5EEEC7
:1051200095E1D5DBEEE238F5FD0936180F1D8F1B32
:1051300048178E10B605D2F6C7E76CDE14DF0AEA10
:105140000CFBC00B6117691D891FFE1DC4164909A0
:1051500026F885E768DB98D8F3E2D1F77C0C0517D1
:105160009D173816EB16E915450EA20034F155E3EC
:1051700087DA0DDC88EAAD004114511F78239623AD
:105180002F1E4F10C7FB36E7A7D957D790E1F0F491
:10519000C4089F147D173217E7178D173F12680751
:1051A0008BF8B7E702DA53D883E7CA006E15D41B31
:1051B0008F16FE0E6D0B5A0BD0094D0228F454E4E5
:1051C000B6DB58E100F47D094416E216DD11900FBC
:1051D0000A11820F7604B4F0CFDCFBD2E6D84FEC94
:1051E000F503AF1430184B114A095007A309B30750
:1051F00004FCBEEA9DDEB3DF08EE7C0254131119F5
:105200000813890845039106270C0B0A8BFCEBE970
:10521000E0DD46E0FFEFFA03C6118913A90BED02AA
:105220004E014906E50872011BF2FBE46FE2F0EB68
:1052300050FD600FA2194217990C7104F0045D092A
:1052400049089AFE68F1F0E71EE6ECECC7FABF0ADF
:10525000D614BF13D809D6FFCFFC1E0093028EFDD3
:1052600073F16FE6B5E69DF54B0B281A5A1AA20F9B
:105270006304CEFF5C01250317FFC3F3FDE6C4E220
:1052800014ED7A014B14C11B38162F0914FC9CF441
:105290003EF42CF80FFB4BF96CF4B1F26AF90807F5
:1052A0004E135816DB0E6B0139F40BED3CF0EEFC9F
:1052B0008D0A970E470764FDC4FA4A005B079A09F6
:1052C0006E05F8FC5BF427F1E7F69D02220B6E09F0
:1052D0001800ADF89EF9720058069B07E3043300EE
:1052E000ADFB98FA89FF4008C00DA30ACE0007F86D
:1052F00079F65CFBE5006702C6FF39FB07F716F697
:105300000FFC32083012D010740498F7EAF2EBF573
:105310005FFBB400E2048305E40166FF44049E0DD4
:10532000A2102C072DF8F9EFDEF2E4FA3D01DC04BF
:1053300009076F065A0227FF3E027B08F707C9FCE0
:1053400030F01CEE52F719024E076B08E0086B07AD
:1053500083013BFAFDF774FC2D02B203810183FF48
:1053600027FF46FFAFFFC900970054FC70F61DF6FB
:105370008CFE4109960CF005B2FB04F6E3F77DFEC6
:10538000500405067C04E902D202C702A301FEFF15
:10539000B0FE5FFD8FFC4FFE22039B076407640293
:1053A000C7FC0FFA61F9A8F772F4AEF3C7F9D40598
:1053B000E1109413AB0C6201FCF73FF3AFF250F530
:1053C000CEFAED014808F80B6B0D9C0DA40BCC0533
:1053D0001DFD26F6F2F346F57CF7C8FAD60016084E
:1053E000010CE909CC03C7FD7BFA63FA16FD7101D4
:1053F000FF040F057501F7FD52FE2E01C300D9FA17
:105400003AF56BF73B014E0B9D0FE50D6E07BFFCA8
:10541000B6F00FEA8DED7AF8D8036B0BD90F87122F
:105420007012730D8803C9F7F5EE82ECABF0EAF861
:105430002202C10AE8119515AE128208D3FB05F4C9
:10544000B2F46CFA47FFC600DA00350247053508AA
:1054500046080E04F5FCDBF6E5F4C6F73DFE7005E4
:10546000F2088A0461F9D6EED3EC36F56E036E11BC
:105470005C1A2D1BBF12F303FFF42FEC28EB7FEE19
:10548000F1F17DF5E8FCA6091417101E311B06107A
:105490001C00B9EF30E4F5E1CCE8E7F392FE4A07EF
:1054A000350EA01253136010AF0A4E0206F70AEB36
:1054B00095E362E5F1EFD4FD9408590CCD08320173
:1054C000C5FB53FD3F0483097108FE02A2FD77F975
:1054D0001DF537F12EF00DF3B1F88E00980ADB14AC
:1054E000A81A78188F0F0D0524FC4AF3E0E7A6DD13
:1054F000BDDD6AEC3A02EA120F1AA31B811AF913F6
:10550000D00609F84FED87E654E1C2E039EB4F00D1
:105510005B15131EFF17700A3AFE41F7E3F539F9E0
:1055200083FE670085FBFDF27DEE4BF29EFBEE03F2
:10553000A107AB075B0787082B0B040EBB0F470EB9
:10554000A407E0FB76EE80E4F0E169E8DAF6B5085E
:1055500023176B1D1A1C7316680E8A04B7F984EEA4
:1055600023E3C3DA79DDB6F0330E6C255729521ADE
:10557000090486F3BDEFE4F678003703DCFC39F468
:10558000D2F229FB22062D0AA00486FB0AF78AFA2A
:10559000D603320EBC140614CC0C450336FBFCF3C8
:1055A000DCEB13E501E5C0EE5D009814BC2408298E
:1055B0008F1D080781F1ECE50CE4F7E656EDE4F801
:1055C000B407F9126716C613C10DC9025DF20EE4E5
:1055D00091E2F6EEB3FE3208BB0BA90DAF0C6A05E3
:1055E00014FB32F6C5F8E7FB4CFAFAF84DFF180B3E
:1055F000AE12BC11950DE00AAB050DF903EA35E4D6
:1056000088EC8AFC660B86157E19F4138D0373EF04
:10561000CBE342E7F1F4BA02B70AEB0EF812A61593
:105620000F120F0758FA08F21CEECDEA49E859EBC1
:10563000D4F6BF06F81346194F159109B1FAC8EE12
:1056400099E9CCE9DDEB68EE5BF33EFC85083C169E
:10565000E222CC297B24A410A8F5D3E1E4DE3EEAC3
:10566000F2F8DF01E0035203FA045A0A9A10DA1141
:105670008C0946F996E926E488ECCBFD540E071612
:10568000CF113105BDF8F3F4A2FA3D01D8FFE3F7DD
:1056900000F5FBFF33142B22E31C0F055BE94BDB0A
:1056A0009AE18CF31E02A805CF0106FFBF02070D89
:1056B000B718F81C9A12FAFBB5E57ADD52E791FBB0
:1056C000F90D1516B013220D7009F209BA094E032F
:1056D000DFF605EB1DE7D4ED1CFC980C0E1A791FC4
:1056E0000919A30753F3F4E586E39AE89FF0B0FAAB
:1056F000D9065B12E2180519F513950AFCFC43EE76
:1057000056E56EE76DF23CFE92040B06EB077B0D4F
:105710009F14BB17EE123A0756FA69F2B9F1BDF5BC
:10572000DAF9A8FBFEFBB4FD5902B008310DBE0C3E
:10573000A906C1FC8DF27EECF5EDFCF555FF4005A8
:1057400091078208B7072703C6FB56F663F677FB77
:105750001D03DC0A6A0F900DF7056AFDA5F797F3A4
:1057600038EFF4ECD2F1E4FD7409E40B1205CDFD41
:1057700024FEDC04FE097608C7024BFE86FD99FF75
:105780008C022704EE02B5FF22FEE7001F072F0D53
:10579000000FD00936FEF4F1ABEC91F08BF72EFA46
:1057A000D9F73CF6A4F9140167081E0C560A9803B1
:1057B0003BFC17FAC7FE2D059806D70120FBC5F65E
:1057C00051F665FA3C03F20D9A144513B10B6F02C2
:1057D00016FA39F33AEFA4EFB8F3A2F807FDFF0188
:1057E0000008A50CA80C94072100DDF9C6F6DBF72C
:1057F0006AFD5B05700ABE0764FE82F5B7F37DF9AA
:105800005102D2086409800352FB2CF73DF95EFD7A
:1058100091FE04FD09FCB1FC55FD80FC07FA7AF607
:1058200087F448F82D02CA0BC00D9208EC031D0541
:105830008009FD0A320763009CF92FF53DF561FBF5
:105840001305720B080982005AFA86FBDAFF110071
:10585000C4FA0DF5B0F3DCF697FC1403D607440741
:105860005F00BEF739F440F8250082060A09750882
:10587000D4050C025CFEC6FB78F9A5F5EFF043EF0A
:105880007FF4CFFF4B0B3510810C7104BCFE2BFE57
:1058900083FFB0FD13F88CF3BEF56FFF2D0B731172
:1058A000A40EE60594FD7EF936F909FBF1FD8300AF
:1058B0005F015B01AE02F5030400B5F50CED30F0BD
:1058C00044FFFE0EB413DE0B10FF58F5F4F030F079
:1058D00023F241F8BB02DD0D6914DE13C10C770021
:1058E0009DF188E516E2D9E756F197F9CC01CD0D87
:1058F000541CFD243C20390FE3FAE8EB34E5E1E5E4
:1059000045ED05FA21084712C1164C17E614C40DDF
:10591000360115F323E9A7E652EB80F59302FA0D61
:10592000A812E80E9706DBFF68FE1B0135045A0437
:10593000D00046FC32FB45FFF2030C0215F9F9F1E9
:1059400096F6BF064B1834207D19D006B5F091E2CB
:10595000AFE2B9ECEDF58BF8F6F884FF170FC8212C
:105960001E2C4024FB09C8E95AD5C0D6F0E94D02E7
:10597000FE141E1E081FE81A0E14340B2FFF8DEFA5
:105980002EE0B2D9F5E2B2F88F0E6D193618281054
:105990006E0541FADCF226F385F887FBCEF928F98B
:1059A000CBFE4807B40B150BBD098F095F078601B5
:1059B000C0FB8DFA8AFD3200B2FFEFFC50FA89F984
:1059C00005FB0AFEB9005B012A00DAFE8DFE84FEAB
:1059D00014FDF4F830F3DBEF0CF4BD004510FA1AB7
:1059E000E91D891B9D15B00A63FA85EA90E342E838
:1059F00012F3E3FC25040D0B201131124F0C800231
:105A0000F3F789EC25E13FDC5BE4A0F73D0CC81916
:105A1000DE1D76194E0EB500B1F6ABF354F67BFCE5
:105A20001B059C0E31152A161F12E90AB000DBF384
:105A30003AE8A2E376E895F2F1FBD901D4054108F2
:105A4000CE065C00B8F8CEF494F51AF972FFA509F9
:105A5000691436191F16AC10330E810C960503F924
:105A6000D3EDE2EB8FF40603EE0F6115A41058039B
:105A7000A9F3F3E8C2E649EA2DEEE6F078F6E10292
:105A80007213B91E041C800BDEF620EA0AEBF6F650
:105A90005F078316382013210718D908C4FAAEF21D
:105AA000A7EF64ED8DEA97EA6FF11EFEC80AB31105
:105AB000CC1075096CFE34F3E6EB65EBD1F110FC0C
:105AC0007406D80E15154819091AC415260D5C035D
:105AD0005DFB99F5CFF19FF044F34FF91D0171087B
